:040000006F10907E6F
:10000400000000000000000090000020E402002036
:10001400A9BDF9F59C0300200000000000000000C9
:100024009C0300209000002000000000000000005D
:10003400900000200000000090000020000000005C
:1000440090000020900000209000002090000020EC
:1000540090000020480800209000002000000000CC
:1000640090000020900000209000002090000020CC
:100074000204002090000020900000209000002046
:1000840090000020900000209000002090000020AC
:1000940001A04111B7170040985F3AC6945F3247F8
:1000A400E39CE6FE3245410182809167938787A9EC
:1000B4000100FD17F5FF8280B7F70700904B01118F
:1000C40013078008F337078093F787083EC20F10A1
:1000D4000000B71700401308700523800705930537
:1000E40080FA2380B7040F10000083C6B70493F688
:1000F400F60DA385D704238007049246F3A6068051
:100104000F10000093760502D5CEF336078093F6E0
:10011400860836C40F100000238007052380B70427
:100124000F100000B70614007D89558D88C70100A3
:1001340001000100010023800704A246F3A6068003
:100144000F10000073370780137787083AC60F1023
:100154000000238007052380B7040F1000000F1050
:1001640000003727004093061005A303D78023809F
:100174000704B247F3A707800F1000009307800815
:10018400F3B7078093F787083ECE0F100000B71728
:100194000040130770052380E704130780FA2380C7
:1001A400E7040F10000003C7B70413670708A3850B
:1001B400E70423800704F247F3A707800F10000029
:1001C4000561828093760504D1C2F336078093F6E5
:1001D400860836C80F100000238007052380B70463
:1001E4000F100000B7061400938606047D89558D10
:1001F40088C7010001000100010023800704C246F2
:10020400F3A606800F100000733707801377870862
:100214003ACA0F100000238007052380B7040F108B
:100224000000A5471376F60F630BF604B7270040CA
:1002340013072005A383E780B71700402380070432
:10024400D247F3A707800F1000000DBF7337078054
:10025400137787083ACC0F1000002380070523800A
:10026400B7040F10000098471367070C98C7238042
:100274000704E247F3A707800F10000001B7B72770
:10028400004013073005A383E7807DB70111814641
:1002940001468145114506CE992493078008F3B79A
:1002A400078093F787083EC60F100000B717004079
:1002B400130770052380E704130780FA2380E704FB
:1002C4000F10000003C76704136717002383E704B4
:1002D40023800704B247F3A707800F100000F24001
:1002E4000561828041118146014681451145C52A37
:1002F40013078008F337078093F787083EC40F106D
:100304000000B7170040130670052380C704930646
:1003140080FA2380D7040F100000FD552396B702FE
:1003240023800704A245F3A505800F10000073374E
:100334000780137787083AC60F1000002380C7048C
:100344002380D7040F10000003C767041367170046
:100354002383E70423800704B247F3A707800F1021
:10036400000001A0931745003385A74001007D15C7
:1003740075FD828015C1411122C426C206C6AA8415
:1003840001440504420441800D33E39C84FEB240E1
:10039400224492444101828082800000930500023D
:1003A40073A0458082457390153492402242B24234
:1003B4004243D2436244F244025592552256B25605
:1003C4004257D2576258F25806499649264AB64AC5
:1003D400464BD64B664CF64C065D965D265EB65E85
:1003E400465FD65F0961730020304111B7170040A2
:1003F400985F3AC6945F3247E39CE6FE324541017A
:100404008280B7170040130700032388E70285475B
:1004140023A4F18A73002030411106C6EF00007F47
:10042400F5BF2303048015472303E480010023025E
:10043400A480828083076480E3CE07FE23030480C4
:10044400828083076480E3CE07FE03454480828074
:1004540083076480E3CE07FE2302A48082804111D7
:1004640026C44AC24EC006C61377F50BAD47AA8907
:100474002E8995446306F70019456537653F8D4419
:100484004E854537FD59FD1463983401B240A244AA
:100494001249824941018280135509011375F50FF0
:1004A400453F2209CDB7011126CC06CEB70408007A
:1004B40051371545BD37713769372AC6A53F3245CF
:1004C4009377150089EB136515001375F50FF2404A
:1004D400E24405618280FD14E9FC0145CDBF397118
:1004E40026DC4ADA4ED852D656D45AD25ED006DE2C
:1004F40062CE66CCB7E700E07D5783AA070022C628
:1005040003AA470023A0E71823A2E718B71700405F
:10051400130770052380E704130780FA2380E70498
:1005240083C74704930B75FFB684E20793FBFB0F65
:100534008546AA892E8B328937240040E1870157EA
:1005440063FA76016308D500894613070002631332
:10055400D5000157D98F93F7F70FB71C00402382BA
:10056400FC0411472303E4801305F00F5D3D094C9F
:10057400D135636D7C11B7050700DA95378707001D
:10058400795563F2E504B3879500636EF702370B80
:100594000800A94733EB65016399F90689E48144AE
:1005A400513D26850DA0DA850945553D05090345CC
:1005B400F9FFFD14050B693D81C49377FB0FFDF72B
:1005C400DD3569FD7D55B71700401307700523809D
:1005D400E704130780FA2380E70403C74704418B29
:1005E4002382E704F250B7E700E023A0571123A2C7
:1005F4004711E25432445259C259325AA25A125B38
:10060400825B724CE24C21618280A5476395F906B6
:1006140085691309F00FB3069900B3742B01B694DE
:100624001349F9FFB3749900856B33796901416B00
:100634009387F9FFB3F7270199E363FC340193D956
:100644004900C147E3E637FF99BF0569C1697D19D0
:10065400D9B71305800D638869011305000263840B
:10066400790113051008CA85DD3B353D21DD4E991E
:10067400B3843441D9B7DA852D45D533CA94E30020
:1006840099F205097D3BA30FA9FED5BF9387F9FF16
:1006940093F7F70F6361FC0C83C71C04130730083E
:1006A400631FF70437070800636BEB04B3079B0071
:1006B400B706100063F5D704334BEB008947639307
:1006C400F9068980D549E38C04ECDA850945413B78
:1006D40011090327C9FF91472320E480030764809D
:1006E400E34E07FE23033481FD17EDFBFD14110BCC
:1006F40081C49377FB0FE9FF7D3371F5E1B5B7173B
:10070400004003C75704B70708001377070219E32B
:10071400B78707007955E378FBEA33079B00E3FFCB
:10072400E7F855B58547E382F9F2DA852D45053BAF
:100734009389F4FFE38504E6293393F7390091EBB9
:10074400832604800327090093074900E39AE6E41B
:100754003E89CE84F1BFB5476396F9001305900B2B
:10076400C93135BDB1471305B00AE38BF9FE99478A
:100774006391F904B7050800B365BB002D45C53185
:1007840081448D4BA1497539639674018327048094
:100794002320F9008504E39834FF8327048013178A
:1007A4002B01635507002312F900D5BB2322F9005E
:1007B400FDB39D476399F90281451305B0044531A2
:1007C400BD442320090023220900FD599D3993F7D4
:1007D4007400CA9703C70700FD14398D2380A7004E
:1007E400E39634FF6DBBA1476392F9046D398144EC
:1007F400630D0B008D479304C0036308FB0093044F
:10080400000563048B01930440041375C507E308D2
:1008140095D81945393139390545213126850D39A0
:1008240009453D314931E31C05D669BB91476399BC
:10083400F90013056006F536F53E130590090DB76A
:10084400E38F09D4F154A9BB197106C212C416C6A8
:100854001AC81ECA22CC26CE2AD02ED232D436D6DC
:100864003AD83EDA42DC46DECAC0CEC2D2C4D6C6CC
:10087400DAC8DECAE2CCE6CEEAD0EED2F2D4F6D6BC
:10088400FAD8FEDA9385018A8841E7000500924090
:100894002242B2424243D2436244F2440255925548
:1008A4002256B2564257D2576258F25806499649D0
:1008B400264AB64A464BD64B664CF64C065D965DC8
:1008C400265EB65E465FD65F096173002030B7E7E7
:1008D40000E09843B706200023A0D718758F0F10A7
:1008E400000001C599C1814711E6B7E700E023A0E4
:1008F400E7108280B386F50003C80600B306F5004E
:10090400850723800601E317F6FEC5B737E700E045
:100914001C43B70620002320D718F58F0F100000C2
:1009240019C191C111E637E700E02320F710828056
:10093400910503A7C5FF11057D16232EE5FEDDB73E
:1009440037E700E01C43B70620002320D718F58FB3
:100954000F10000001C53307C50011E637E700E0BA
:100964002320F71082800505A30FB5FEE31DE5FEE5
:10097400F5B7B7E700E09843B706200023A0D718DF
:10098400758F0F1000008147B306F50083860600BB
:1009940099E6B7E600E023A0E6103E85828085074D
:1009A400E5B737E700E01C43B70620002320D7183B
:1009B400F58F0F10000001C599C1014711EA37E70F
:1009C40000E02320F710054582800507E309E6FED1
:1009D4003308E500B386E5000348080083C6060033
:1009E400E305D8FE37E700E02320F71001458280B5
:1009F40037E700E01C43B70620002320D718F58F03
:100A04000F1000001307F6FFBA952A966317C50066
:100A140037E700E02320F7108280FD1503C7150097
:100A24000505A30FE5FEDDB737E700E01C43B70675
:100A340020002320D718F58F0F10000001C53307BD
:100A4400C50019E637E700E02320F710014582804E
:100A540005058346F5FFE397B6FEE31BE5FE37E79E
:100A640000E02320F7100545828079719737000054
:100A74009387473022D4804306D626D24AD04ECE1E
:100A840052CC56CA5AC85EC669C037C9C901014B9F
:100A9400973900009389892D1309F937173A000013
:100AA400130A8A2D973A0000938A8A279734000004
:100AB400938444318357240095E35C44631D0B0005
:100AC400173700002328F72A832BC4002285EF0060
:100AD400F0225E84A9A82326FB00FDB783A70900A2
:100AE40082971C443307F5406375F500D8401D8F89
:100AF4002A976361E9089737000023AB07228355DF
:100B0400240003450400974000E0E78020B85C40DF
:100B14005844B9C70C44D040AE97BE8663E4B700CE
:100B240063E4C700B386C74014C4228B3A8459F0E7
:100B3400973700009387C71E9C4B09476373F708D8
:100B4400F917173700002325F71EB2502254925488
:100B54000259F249624AD24A424BB24B4561828001
:100B640063170B009737000023A6E720B1BF2326A5
:100B7400EB0099BF03274A021DCF63E1A704338525
:100B8400A7408347040085E3173700000347372055
:100B94005917B307A7003E85D44063E4E70063E434
:100BA400D7003385D74083A70A016376F5009737CA
:100BB400000023AFA716228B404495BFD840BA97B4
:100BC4007DBF9737000023A5071641B7973700006C
:100BD4009387C71E9C4385C3411106C682979737E6
:100BE400000083C7871889E79737000023A8071CEC
:100BF400B240410182809737000083C7071791E70D
:100C04009737000023AC071A82808280411122C4E6
:100C140017340000130484131C4006C626C24AC0BD
:100C240091C782979737000023A2071297370000D5
:100C340083C79732858B173900001309A93189CFEF
:100C44008347790019476312F71097370000A3858B
:100C540007303D235C4482971C4491C382979734A8
:100C640000009384E4109840173600000346560BA6
:100C74009737000083C7C70A93961700BA9683D69E
:100C84000600E5C29737000083C7870963E5C70EEE
:100C940097370000238607081C40639E0714973784
:100CA40000009387A70C9C436387071497370000C1
:100CB40093874711DC4317370000232BF70675335E
:100CC4009737000083C7B729639707129737000047
:100CD40083C7D72891CF8347790093F7F70F89EB20
:100CE40097370000A38C0726974001E0E780A0CE49
:100CF4009737000093874708DC53638E070E9737B6
:100D040000009387E7019C4BFDC783477900154793
:100D14006363F70E9737000083C74729918BE1EF90
:100D24009737000083C76704F9E7904097360000BF
:100D340083C616FF63C7D70C2244B24092440249CB
:100D44004101174300E06700E3F5834779001D473D
:100D5400E314F7F097370000A380072015211C48FF
:100D6400DDBD850793F7F70F97360000238AF6FA5F
:100D7400E3E0C7F001BF86073E97835507002310C1
:100D8400070097370000239107FE973700009387E9
:100D9400A7FB9C4317350000034585F8131725006E
:100DA400BA979C4382979737000083D7E7FB17379E
:100DB40000000347E7F693C7F7FF7D8D93171700ED
:100DC40098403E97835707005D8D2310A7009737FF
:100DD400000083C7E7F491C7850717370000230194
:100DE400F7F4173700000347A7F39737000083C7CA
:100DF40037F3E37FF7E8B2402244924402494101C9
:100E04008280139717003297035707006DF7850701
:100E140015B737C700408326C720B707FCFFFD1767
:100E2400F58F2326F72001000100973700009387F0
:100E340027EFC84F832787262326D7206A0593C721
:100E4400F7FF99835D8D82800111973700009387A6
:100E5400E72122CC03A4070C26CA06CE2AC42EC638
:100E6400854419E40145F2406244D244056182801C
:100E74008347910003471400858B6304F700004403
:100E8400CDB719469305A10013052400193EE318B4
:100E940095FE0545C9BF0000EFF05FD37300000065
:100EA4000000000097320000938222EC03830200CA
:100EB40023800200630F0300F32510342EC097052E
:100EC40000009385A5FD73901534EF00204E730048
:100ED400203086DCEF00804DE6508280000017371A
:100EE40000001307E7061443411122C49C5E4AC064
:100EF40006C6998326C2858B3A84173900001309E4
:100F0400E904D1CB930700069CDE173700000347A2
:100F1400C70493070008973400009384A403631B59
:100F2400F700832709009C4393F707041737000051
:100F34002305F70283C7040093F707049DC397377B
:100F440000009387A7E29C4382979737000023A170
:100F5400A70283C7040093F7F70B17370000230B8E
:100F6400F7FE83C7440093F7070495E785471737CF
:100F74000000A303F7FE97370000938727009C43E4
:100F84003707020098C7130700FC97360000238533
:100F9400E6FC9848F8D318401C5F9183858B8DC379
:100FA4001C5F93E707011CDF97370000938707FD59
:100FB4009C4323A20706854717370000230EF7F842
:100FC40083270900D8430583058B19C7D843759B2C
:100FD400D8C3D843799BD8C3B2402244924402492F
:100FE40041018280ED3D730020309317D50063D317
:100FF400070297370000938767F89C437D57B8D75B
:10100400973700009387C7D1DC4F85071737000057
:101014002326F7D2937785009DCB9737000083C7AB
:1010240087F393E71700173700002306F7F29307B7
:1010340000F8173700002301F7F297370000938771
:1010440027F198435C57F19B93E717005CD793779C
:1010540015008DC79737000083C7D7EF93E71700B4
:1010640017370000A308F7EE97370000938747EE81
:1010740098435C57F19B93E717005CD7937765001F
:1010840095CB93774500173700001307A7ECCDCB1A
:101094008347070093E7170017370000230CF7EA8C
:1010A400973700009387C7EA98435C57F19B93E70F
:1010B40017005CD79317F50063D4070217370000B5
:1010C40003474702418B97370000938727FA51C3A0
:1010D40083C7870793E70702173700002304F70045
:1010E4009317E50063D707029737000083C7C7E665
:1010F400E207E18763D70700854717370000230D10
:10110400F7E497370000938767E79C4337070200AB
:1011140098C79317C50063D4070217370000034725
:1011240077FC058B97370000938747F429C383C75F
:10113400970793E7270017370000A305F7FA828083
:101144008347370093E7170017370000A305F7E03C
:1011540081BF03C7870789463D8B6308D70083C7D0
:1011640087070D47BD8BE39DE7F69147B5B703C7E6
:101174009707118B69D783C7970793E7870065BFE4
:1011840097370000938787DF94439737000093874E
:1011940067DC03C70700058B11CB97370000238D4D
:1011A40007DA97370000A38907DA828003C717009C
:1011B400058B65F7F85271FF83C75700DDB7173702
:1011C40000001307E7D803280700832788039583C3
:1011D400858BADEF11C683270803BD832300F6007A
:1011E4009DC61C43985B46079357670163560700E7
:1011F40093E707C0C207C18303970600C207C187EC
:1012040009C7BA970947B3C7E7022390F6008DCD03
:101214008345150095C99737000083C707D493F712
:10122400070413879500894585C33A9583470500CC
:101234000547994593F6F7066398E600E207E187C8
:10124400814563D30700B9452E8582808545EDBF6E
:10125400411126C206C622C497340000938404D2E6
:101264003DED9440AE87F8527DFF37F400E03E85B3
:1012740097370000238107CE832704D1B285ED9BE5
:101284002328F4D0832704D193E787022328F4D0BA
:1012940073005010973001E0E780405B97370000FF
:1012A400938707CB9C43B70680009843558F98C318
:1012B400D857719BD8D797370000A38F07C89737A3
:1012C4000000A38907C89C40094798C3832704D119
:1012D40093E787002328F4D0730050100DA08D47A6
:1012E4006315F50497370000938787C69C43B706B8
:1012F40080009843558F98C3D857719BD8D7944092
:1013040017370000130707C583472700858B89EB30
:1013140083473700858BC1CB97370000238E07C2E4
:10132400B24022449244410182808547E319F5FC8E
:10133400B7F700E003A707D16D9B23A8E7D003A765
:1013440007D11367870223A8E7D073005010984091
:101354008177FD175447F58F5CC70F100000984044
:10136400B70702001CC7930700F8173600002305CF
:10137400F6BE973700009387A7BD9C439C439D838B
:10138400858B639FA700930760197CD354C737F7F5
:1013940000E0832707D193E787002328F7D02DBFE8
:1013A4009307E01BDDB7FC52A5F39DBF9737000000
:1013B4009387C7BC9C438847D847798D09C988C798
:1013C4009387419503A3070063030300028382808C
:1013D40097370000938787BA98438967938707F400
:1013E4007CD3973700009387A7BE9C4383A6070945
:1013F400139656006358060083A6070913966600E1
:10140400634406007453FDF282804111B7E700E0A3
:1014140022C480433707200006C6798C23A0E7182E
:101424000F10000011C199E5B7E700E023A0871071
:1014340001457DA893073500C207C183F19BC2070C
:10144400C183130740036369F702173700001307CA
:1014540067C1084317370000130747C0144363925A
:10146400A6021737000013072791185B55DFC20740
:10147400DD8D054502974DBF17370000130747BEA2
:10148400C9BF035765002DEB035745006366F70694
:10149400B306F7402146637CD602032805009386F1
:1014A40087001D8FAA966117173600000356A6877A
:1014B4002392E60023A006012393060014C12312FD
:1014C400F500130786FF97360000239EE684231356
:1014D400B5009735000083D50585B387F5401737E8
:1014E40000002312F784B7E700E023A0871021054A
:1014F400B240224441018280084195B7B7E700E039
:101504008C433707200023A0E718F98D0F10000043
:1015140001E523A0B710828097370000938787B432
:1015240003A3070097370000938747B383A80700F6
:1015340081469A8763F2170D03A807006361F50CCF
:10154400636FA80A138787006368E50A03D66700F8
:10155400216705076317E60003C7C19405072386BF
:10156400E194172500001305A57B03D64700035714
:10157400650023930700329742074183172E00002A
:101584002313EE7A638C670217330000130343AD11
:10159400032303006304F30203D36600631003020E
:1015A40083D7460023A0060121073E9621062392F5
:1015B400C600972700002398E776B6879843630D03
:1015C4001703973600009386A6A994426306D702B0
:1015D4008356670095E283D64700035647001843B5
:1015E400A106B2962392D70098C383576500A1073A
:1015F400172700002319F772B7E700E019BFBE866A
:10160400C2870DBF03278511630407120346E5044F
:10161400854663000612411122C406C68347C500ED
:101624002A8493F7C70F2306F500834597000358D0
:10163400C700139585016185637006096359050622
:101644000345870093F5F507A304B70093E5270046
:101654006314D50093E517002306B4005C4389079F
:101664005CC3A30AC400032504114C430905EFF02D
:101674000FA68327841103465401D44303D7C7001C
:10168400B296118FD4C32396E7008947A30DF400C3
:10169400034764039727000083C7276F6377F70422
:1016A4008347C40093E707012306F4003DA893E7AA
:1016B40017002306F40075B71376F80F635D05026F
:1016C4000345870093E527006314D50093E51700CD
:1016D4002306B400A30AC400A30407008547A30D8E
:1016E400F400832784119C43C5F7B2402244814609
:1016F40036854101828093E717002306F400A30A8C
:10170400C400A3040700032504114C4342860905C1
:10171400EFF0EF9B8327841103465401D44303D78E
:10172400C700B296118FD4C32396E7008D4745BFF7
:10173400854636858280973700009387E7A59C43CA
:10174400411122C406C6858B2A84C5EF4165130561
:1017540025F5970002E0E78040B045C58347A50022
:101764002315F50083270412BDE72320A4122322A6
:10177400A41285472311F404232005008347640140
:1017840054412316F5000347D4002304E50005471C
:10179400A304E500172700001307C77B58531385DC
:1017A400170215811C437D151375F50F9CC25C430C
:1017B400DCC21C479CC65C47DCC61C4B9CCA5C4B09
:1017C400DCCA1C4F9CCE5C4FDCCE19CD938606023E
:1017D40013070702C1BF8327441288C38357240415
:1017E4002322A412850779B79737000083D7878807
:1017F400850717370000231FF786B24022444101B2
:1018040082808347C40023090400054593C7470029
:101814002306F400DDB78347850193F7E70FD5EF7F
:1018240083479501DDEB034625018346C50009CABC
:1018340083456503172700000347375563E7E50031
:1018440013F7060141CF014709C6C18A0357651C36
:1018540081C68356A51C369751C31307C712172593
:1018640000000355A556B335A70237460F004111B2
:1018740013060624814622C426C206C67D543305B7
:10188400A702972002E0E780E0799727000083C74A
:101894001750B384A700972700009387277D03A7D9
:1018A40087098327070963F387003E84184375FB80
:1018B400972700009387874B9C43829781476364F3
:1018C400A400B307A440B2402244B3B7970093C71F
:1018D400170092443E854101828081473E85828083
:1018E400972700009387876998433C5BFDFF0100BD
:1018F40001008280011122CC4AC84EC606CE26CAF7
:1019040052C456C25AC00347B50085472A842E895B
:10191400832905096311F72683570508835AC503EC
:10192400172A0000130A0A4A172B0000035B0B4A0C
:1019340063FB5721834605016397E620032785113E
:10194400631307200327450A631F071E8346F50018
:101954001D47639AE61E03471401B38AFA401395A0
:101964000A01418121CF9377170099CB8357E4056E
:1019740083560404958F63D5A7001395070141810D
:101984009377270099CB8357E41283560404958FE9
:1019940063D5A7001395070141819377070199CB7C
:1019A4008357C41483560404958F63D5A7001395F5
:1019B40007014181218B11E311E105450357A4037C
:1019C4009307204E832444093305A70237460F00AA
:1019D4008146130606243305F5029727000083C7C2
:1019E400073BB3549502B335AB02BE94C204C18025
:1019F400231394083305AB02972002E0E78080624A
:101A0400B307350133B5A7002E953E8783264A00D8
:101A140019E163E4D7003387D740B3846403B7463E
:101A24000F009387F623938606242320E900A697C4
:101A3400B3D7D702D6976362F7101D8F2320E9002E
:101A4400972900009389893283A709008324090018
:101A5400829763E5A4123385A4406354050C83A7DD
:101A640009008297032709006361E512198D8357E2
:101A7400E40317270000035767358E07B387E7028F
:101A84001307003293870719B3D7E70263E7A71058
:101A9400374A0F00130BFA23972A0000938A8A32DD
:101AA400130A0A248357040485072310F404834784
:101AB400041499E322855922228597E001E0E78006
:101AC400406D75E9832604098327C40803A74A00E7
:101AD400B6973E8563E4D70063E4E7003385E740C7
:101AE4008347F401835464082328A4088507A30FBB
:101AF400F4009727000083D7672DB384F402DA94A7
:101B0400B3D444036368950CB304954083A70900D8
:101B140023209900829763E3A40C3385A440E34314
:101B240005F89727000083C7972663E7A708972738
:101B3400000023AD875C014541A083264A00B3879A
:101B4400F6403E97E5BD8354640837470F0093077A
:101B5400F723B3846403BE9493070724B3D7F40232
:101B640063E7F900B387F9402320F900D1BD0327C7
:101B74004A00BA99C5BF23A03501D9B597270000FB
:101B840093874724DC43BE94F9B5972700009387D5
:101B94006723DC43998F3E95D9BDA145228597E003
:101BA40001E0E780E057A305A4029727000093878C
:101BB400A71C9C5B81EF7D55F2406244D2444249AC
:101BC400B249224A924A024B0561828089451545F1
:101BD4008297D5B7B3049740AA940DBF83A74A0050
:101BE400BE9425BF39C901116C0022CC06CE2A84CB
:101BF40011331DCDFD576302F502B247972500004E
:101C040083C5F51863EFB70003459402B385B74065
:101C14002EC6973000E0E78000BFF24062440561C1
:101C24008280172700001307E7195843BA97E9BFC2
:101C340097F001E0E7806013CDB78280797126D2F6
:101C440006D622D44AD04ECE52CC56CA5AC85EC604
:101C54008347550303447513AA843E941374F40F05
:101C64009307400263F687001304B4FD1374F40F62
:101C740003AA841383AAC413A38B841222865285D5
:101C8400D685972002E0E78060F6058915E503CB49
:101C9400D41201498149337B6403930B50024A8671
:101CA4005285D685972002E0E78040F4058915C562
:101CB400639169031374F90F238B8412B250225475
:101CC40092540259F249624AD24A424BB24B45619C
:101CD40082808509E20993D989410509E31179FDD7
:101CE400E1BF8327850903560504797193D607015B
:101CF400BD8EC206C182358E135776409357564027
:101D0400898B058B5D8F93573640918B5D8F9357ED
:101D14001640A18B5D8F93171600C18B5D8F9317AF
:101D2400360093F707025D8F93175600935586008C
:101D340093F707041E065D8F1376F60F518F93D722
:101D4400554013D63540118A898BD18F13D67540EF
:101D5400D18F13D61540218AD18F13961500418A4D
:101D6400D18F1396350013760602D18F1396550042
:101D7400137606049E05D18F93F5F50FCD8FA20738
:101D840045465D8F3307C70222D42A8426D252CC1B
:101D940056CA032A8413832AC4135AC806D636970C
:101DA4004207418393577740135557400989858BE0
:101DB400C98F135537401189C98F1355174021898D
:101DC400C98F131517004189C98F1315370013756F
:101DD4000502C98F13155700935587001375050421
:101DE4001E07C98F1377F70FD98F13D5354013D733
:101DF40055401189098B498F13D57540498F13D5E7
:101E040015402189498F139515004189498F1395F0
:101E1400350013750502498F139555001375050494
:101E24009E05498F93F5F50F4D8F2207D98FB38700
:101E3400C7024AD04ECE5EC662C4B697C207C183FB
:101E440013D7774013D557400989058B498F13D58C
:101E540037401189498F13D517402189498F13952C
:101E640017004189498F1395370013750502498F6F
:101E74001395570093D58700137505049E07498F62
:101E840093F7F70FD98F13D5354013D755401189E0
:101E9400098B498F13D57540498F13D51540218976
:101EA400498F139515004189498F13953500137592
:101EB4000502498F13955500137505049E05498F36
:101EC40093F5F50F4D8F2207D98FB387C7021306F9
:101ED40050025285D685B697BD8E93940601C18073
:101EE40033F6C402137BF60F972002E0E78000D09C
:101EF40005890DED8347D41201498149B3849702C2
:101F0400130C5002C1804A865285D685972002E080
:101F1400E780C0CD0589937BF90F11C5638634032F
:101F2400850993F9F90F0509E31F89FD230B641350
:101F3400B250225492540259F249624AD24A424B54
:101F4400B24B224C456182805E8BCDB7011197273D
:101F540000009387A71122CC03A4870C26CA4AC881
:101F64004EC606CEAA8413092500854915C083C729
:101F7400140003473400858B6304F700405CFDB70D
:101F84001946930544004A85EFE0BFA1E31835FFE5
:101F94002285F2406244D2444249B24905618280BA
:101FA4004111972700009387670C22C403A4870C70
:101FB40026C24AC006C693042500054901E82285C5
:101FC400B24022449244024941018280A68513050D
:101FD400A402970002E0E7800038E30225FF405C9A
:041FE400F1BF000049
:101FE80097110020938101B217510020130101813C
:101FF8001305400097E5FF1F93854500170600204D
:10200800130606FE63FAC5008322050023A05500C7
:1020180011059105E3EAC5FE17450200130585245D
:10202800970500209385C5FB1386C18963FAC5000F
:102038008322050023A0550011059105E3EAC5FE9A
:102048001385018A972500209385C5156377B50008
:10205800232005001105E36DB5FEFD42739002BC17
:102068008D4273904280930280087390023097E209
:10207800FF1F9382A2F893E23200739052309722A6
:1020880000009382820673901234730020302A83F2
:1020980009CA83830500230073007D16050385059F
:1020A8006DFA82802A8311C62300B3007D160503CA
:1020B80065FE8280B717004003C777051377E70FDF
:1020C800A38BE704130700F8A38DE7043D47238C8F
:1020D800E70413075003A38CE70403C7A705137786
:1020E800D70F238DE7048280B717004003C7E702A4
:1020F8000D8941111377C70F498F93068008F3B6EE
:10210800068093F6860836C60F1000009306700501
:102118002380D704930680FA2380D7040F10000089
:102128002387E70223800704B247F3A707800F102D
:102138000000410182801308407E4111BE8F637206
:10214800A8329307B581C207930EE5FFC183130335
:10215800F5FFB38EFE400148130F001993024006A5
:10216800336EE3039308E016630E0E00336E5302DA
:10217800937733009308D01663060E0093B81700C0
:102188009388D816C298139808017D13135808012C
:10219800E3986EFC854763F4B70893084006B37864
:1021A800150393070019B377F502638F081863873F
:1021B80007240D89133515008D4E7105214EFD42FA
:1021C800054F6384D50393F715009388E7011383BC
:1021D800F5FFC2986379BE029315030113980801AD
:1021E800C18113580801E390D5FF89452A98420810
:1021F80093F71500135808019388E7011383F5FF37
:10220800C298E36BBEFCB387F240C29793150301F3
:1022180013980701C18113580801E394E5FBE147CE
:10222800B3F6F6027D1632981306807093154700B0
:102238003387E5409317170013D71F00BA97939574
:10224800FF002167F98D420813580801371700402D
:10225800B386C602B697C207DD8D8347F70293F7A8
:102268000708A303F100834671008347F70293F739
:102278000708E394F6FE834771009DE783477100E2
:1022880085E7371700408347F70293F70708A3034A
:10229800F100834671008347F70293F70708E39438
:1022A800F6FE83477100E5D393078008F3B70780EC
:1022B80093F787083EC40F100000B71700401307B4
:1022C80070052380E704130780FA2380E7040F10C2
:1022D800000023AA070303C7170313670708A38887
:1022E800E70223800704A247F3A707800F10000026
:1022F8001166371700407D165C5B545FB58FF18F10
:10230800E5FF93078008F3B7078093F787083EC671
:102318000F100000930770052300F704930780FA55
:102328002300F7040F1000004CDB8347170393E7E3
:102338000704A308F70223000704B247F3A707809E
:102348000F100000410182800D4E21437D4F854EC4
:10235800A5CF6384C50393F715001385E701938818
:10236800F5FF42956379B3029395080113180501A7
:10237800C18113580801E390C5FF894571084208D7
:1023880093F71500135808011385E7019388F5FFA3
:102398004295E36BB3FCB307FF40FD15C297C20536
:1023A80013980701C18113580801E394D5FB85BD33
:1023B800B307FF40C2979395080113980701C1819D
:1023C80013580801E38DD5E56384C50393F7150019
:1023D8001385E7019388F5FF4295E37BB3FC93955A
:1023E800080113180501C18113580801E390C5FFBE
:1023F80075084208135808018945C9BF0D4E214385
:102408007D4F854E6384C50393F715001385E70157
:102418009388F5FF42956379B302939508011318E1
:102428000501C18113580801E390C5FF8945750866
:10243800420893F71500135808011385E70193889C
:10244800F5FF4295E36BB3FCB307FF40FD15C29758
:10245800C20513980701C18113580801E381D5DD2E
:1024680055B7014805BB1571A2CD86CFA6CBCAC901
:10247800CEC7D2C5D6C3DAC15EDF62DD66DB6AD9F4
:102488006ED72A842AD682C6EF007025AA88130739
:102498008008F337078093F78708BEC80F1000003D
:1024A800B7170040930570052380B704130680FA18
:1024B8002380C7040F10000083C6F70293F6760F37
:1024C800A387D70283C6F70293E68600A387D702BD
:1024D80023800704C646F3A606800F10000083C6B3
:1024E800E70293F6C60F93E6160073370780137753
:1024F80087083ACF0F1000002380B7042380C70451
:102508000F1000002387D70223800704FA47F3A798
:1025180007800F100000930680C1B346D5023D65C1
:10252800130505A60546331686000D8637430F00AA
:1025380013030324930E60FB9377F40F916C138EAF
:102548000CE83ED49387FCFF3EC28565938505FA67
:10255800B3958500B71D004002D0014A9304800856
:10256800138D0D04130B700513097005130480FAFD
:102578001398360036980A0836983348A802330666
:10258800D602135CF84142CE33C36802B386D60341
:10259800930EA0AA3306D603B3C7C803B3080041F5
:1025A80013D7F8413ACC46D233C7A6023EC4FD87BA
:1025B8003EC63346A6029357F7413ECA3AC8B3858A
:1025C80065029357F6413EDC32DE93D6F54193F629
:1025D800F60FAE96A186939736003ED893D7F6416C
:1025E8003EDAF3B7048093F78708BECA0F100000DD
:1025F80023002D0123008D000F10000083C73D0527
:1026080093F7870FA389FD0483C73D0593E7170058
:10261800A389FD0423000D00D647F3A707800F10F8
:102628000000916AE17BF3B7048093F78708BECC7A
:102638000F10000023002D0123008D000F10000053
:1026480083C73D0593E70702A389FD0483D70D05DA
:10265800B3E75701C207C1832398FD0483D70D054B
:10266800B3E77701C207C1832398FD0423000D0057
:10267800E6473DA0F3B7048093F78708BECE0F1056
:10268800000023002D0123008D000F10000083C7D8
:102698003D0593E70702A389FD0423000D00F647D3
:1026A800F3A707800F10000083C73D0593F70702C3
:1026B800F1D383C73D05A18BEDDFE800EF0070067D
:1026C800F3B7048093F78708BED00F1000002300EB
:1026D8006D0123008D000F10000083C73D0593F79F
:1026E800F70DA389FD0483C73D0593E70702A38976
:1026F800FD0483D70D05B3E75701C207C1832398AB
:10270800FD0483D70D05B3E77701C207C18323987A
:10271800FD0423000D0086573DA0F3B7048093F70E
:102728008708BED20F10000023002D0123008D0062
:102738000F10000083C73D0593E70702A389FD0436
:1027480023000D009657F3A707800F10000083C7DA
:102758003D0593F70702F1D383C73D05A18BEDFF34
:1027680097E0FF1FE780A092AA8997E0FF1FE78004
:102778000092E30C35FF83D70D053645B3E75701C3
:10278800C207C1832398FD046D2F83C73D05A18B24
:10279800EDDF83D70D05124783C62D05F98F1397F3
:1027A800E600158FB386E700B3B9F600A2477D8728
:1027B800BA99B38CF640B247B3B69601B389F940DB
:1027C800B389D94063473C01639D8901F24763FAA5
:1027D8009701E24763C4F90863953701925763EF9D
:1027E800FC060947636E47074246D24693D5FC016B
:1027F80013971900050A13951C00D98D137AFA0F3F
:10280800EF10C2426350303F130715003335A7005D
:102818002E959357F5013E97B337F700AA97FE0711
:102828000583D98F73B7048013778708BAD40F103C
:10283800000023006D0123008D000F10000003D756
:10284800CD02BA97C207C1832396FD0223000D006B
:10285800A657F3A707800F100000F1B3E3060AF8A4
:10286800F3B7048093F78708BED60F100000230043
:102878006D0123008D000F10000083C73D0593F7FD
:10288800870FA389FD0483C73D052257D98FA389E4
:10289800FD0423000D00B657F3A707800F100000B2
:1028A80083C73D0532579D8B6302F704BA862257CA
:1028B800F3B7048093F78708BED80F1000002300F1
:1028C8002D0123008D000F10000083C73D05D98F0F
:1028D800A389FD0423000D00C657F3A707800F1036
:1028E800000083C73D059D8BE394D7FCF3B70480B4
:1028F80093F78708BEDA0F10000023006D0123004C
:102908008D000F10000083C73D05116793F7F70D81
:10291800A389FD0483C73D0593E70702A389FD0446
:1029280083D70D05D98F2398FD0483D70D0521671B
:10293800D98F2398FD0423000D00D6573DA0F3B787
:10294800048093F78708BEDC0F10000023002D01D8
:1029580023008D000F10000083C73D0593E7070291
:10296800A389FD0423000D00E657F3A707800F1085
:10297800000083C73D0593F70702F1D383C73D05E0
:10298800A18BEDDFE800712BF3B7048093F787087C
:10299800BEDE0F10000023006D0123008D000F1014
:1029A800000083C73D05116793F7F70DA389FD0460
:1029B80083C73D0593E70702A389FD0483D70D0567
:1029C800D98F2398FD0483D70D052167D98F2398C4
:1029D800FD0423000D00F6573DA0F3B7048093F7DC
:1029E80087083EC10F10000023002D0123008D0031
:1029F8000F10000083C73D0593E70702A389FD0474
:102A080023000D008A47F3A707800F10000083C733
:102A18003D0593F70702F1D383C73D05A18BEDFF71
:102A280097D0FF1FE780A066AA8997D0FF1FE7808D
:102A38000066E30C35FF83D70D0536451167D98F3E
:102A48002398FD04FD2983C73D05A18BEDDFF3B76E
:102A5800048093F787083EC30F10000023006D0120
:102A680023008D000F10000083C73D0593F7F70D75
:102A7800A389FD0423000D009A47F3A707800F10D0
:102A8800000083D70D05124783C62D055256F98FCE
:102A98001397E600158FB386E700B3B7F6007D8776
:102AA800BA974257918F3387E640B3B6E600958FC1
:102AB8006353F01C1305800CB307F502E2567256F7
:102AC800B335E5023305E502BE95EF1022169306ED
:102AD800150033B7A6002E979357F701BE96B3B7E4
:102AE800F600BA979395F7018582D58D8587635D42
:102AF800F01003D7CD021583B306B70033B7E6004D
:102B0800BA976347F000ADEB9307F00F63F6D7066B
:102B18000257894763E5E71E93078008F3B70780E4
:102B280093F787083EC70F10000037170040930738
:102B380070052300F704930780FA2300F7040F10A9
:102B480000008357C7028566811693F7F70FD58F64
:102B5800C207C1832316F70223000704BA47F3A765
:102B680007800F1000008257850793F7F70F3ED0B4
:102B78008DBC99E363EDE60A93975500C207C183BC
:102B88001307800873370780137787083ACD0F102B
:102B9800000037170040930670052300D7049306FA
:102BA80080FA2300D7040F1000008356C702B69797
:102BB800C207C1832316F70223000704EA47F3A7D5
:102BC80007800F100000FE406E44DE444E49BE49A7
:102BD8002E4A9E4A0E4BFA5B6A5CDA5C4A5DBA5D25
:102BE8002D61828063940900E3900CC2933715002D
:102BF8009D8D93D7F5017D153E95B337F500AE97BA
:102C0800FE070581C98F39B999E3E39405EE33E7E7
:102C1800F500630C071283D6CD023337B000B30733
:102C2800F040998F95823307B040E354F0F402578F
:102C3800894763E4E708F3B7048093F787083ECB36
:102C48000F10000023006D0123008D000F100000FD
:102C580083D7CD020567011793F7F70FD98FC207FE
:102C6800C1832396FD0223000D00DA47F3A70780EE
:102C78000F100000CDBD99E3E31E07E21305800C99
:102C8800B307F502E2567256B335E5023305E5029D
:102C9800BE95EF00B27993371500B386F54093D708
:102CA800F6011307F5FF3E97B337F700B6979395EC
:102CB800F7010583D98D85871DBD93078008F3B774
:102CC800078093F787083EC90F100000B717004028
:102CD800130770052380E704130780FA2380E704AD
:102CE8000F10000003D7C7027D8B2396E7022380CD
:102CF8000704CA47F3A707800F100000E9B5930738
:102D08008008F3B7078093F787083EC50F100000C7
:102D1800B7170040130770052380E704130780FAEC
:102D28002380E7040F10000003D7C70289668116C5
:102D3800558F420741832396E70223800704AA4759
:102D4800F3A707800F100000BDBD814715BD91474F
:102D580063E7B702173702001307079F8A05BA957A
:102D68009C41BA978287B717004003A7470B498F42
:102D780023AAE70A03A7070A498F23A0E70A828044
:102D8800B717004083A6470B1347F5FF758F23AA93
:102D9800E70A03A7070A498F23A0E70A8280B71723
:102DA800004003A7470B1345F5FF698F23AAE70ADD
:102DB80003A7070B698F23A8E70A03A7070A798DDA
:102DC80023A0A70A8280B717004083A6470B1347A2
:102DD800F5FFF98E23AAD70A83A6070BC98E23A865
:102DE800D70A83A6070A758F23A0E70A8280B71738
:102DF800004083A6470B1347F5FFC98E23AAD70ABD
:102E080083A6070BF98E23A8D70A83A6070A758F0E
:102E180023A0E70A8280914763E7B70217370200C9
:102E28001307C7938A05BA959C41BA978287B71743
:102E3800004003A7470D498F23AAE70C03A7070CF7
:102E4800498F23A0E70C8280B717004083A6470D5F
:102E58001347F5FF758F23AAE70C03A7070C498FC3
:102E680023A0E70C8280B717004003A7470D13453E
:102E7800F5FF698F23AAE70C03A7070D698F23A81D
:102E8800E70C03A7070C798D23A0A70C8280B7173E
:102E9800004083A6470D1347F5FFF98E23AAD70CE8
:102EA80083A6070DC98E23A8D70C83A6070C758F98
:102EB80023A0E70C8280B717004083A6470D13476D
:102EC800F5FFC98E23AAD70C83A6070DF98E23A870
:102ED800D70C83A6070C758F23A0E70C8280B71741
:102EE8000040884793770504420541819DC3937745
:102EF800050C130700046386E7002165130505D058
:102F08008280B7479C1C938707807D8933C5A702B9
:102F18008280B757E801938707807D8933C5A70268
:102F2800828037E700E01C435443A183E206D58F33
:102F38001CC1FD572320F7182322F7180F10000093
:102F48008280B7E700E01317850023A0E7106181AE
:102F580023A2A7108280B7F700E08847CC47828079
:102F680032856352C0023388C50037370040A14616
:102F78008347B740E38ED7FE83C705008505230442
:102F8800F740E39705FF828017F7FF1F130787377E
:102F98001C43971600209386E6203E95636BD50068
:102FA800973600209386866563E5A60008C33E85AC
:102FB8008280FD573E858280411106C60D379317E2
:102FC8002500AA9786077167130707208D83B3D753
:102FD800E702A946373700409507B3D7D702C2079B
:102FE800C1832316F740930770F82301F7408D47F4
:102FF800A301F74093070004A300F7408547230780
:10300800F740B2404101828011456FF0CFC54111B0
:1030180093962500AA852D4506C697D0FF1FE78001
:10302800C04BB240014541018280011122CC06CE3D
:103038003714004026CA4AC84EC652C48344740591
:10304800034AB4058349840503499405EFF08F8644
:103058008347A40593F4F40F137AFA0F93E7170044
:1030680093F9F90F1379F90F37170040230DF4047A
:103078008347A705858BEDFF0355C705A30D4705B6
:10308800230C3705A30C2705A30B9704F2406244D1
:10309800D2444249B249224A05618280411193973C
:1030A800050122C406C626C2C1872E8463CF070441
:1030B80093F7150013C5150091EF93F7250013C575
:1030C800250089EB8964B3F79500A1EF916433F586
:1030D800950011E5B24022449244410182801725AF
:1030E80002001305E568EF10226413060064916579
:1030F80003C5418AEF106078258CB240131504018E
:1031080022449244418141018280EF10801519C107
:10311800EF1000092165B240218D224492444101FB
:103128008280EF10F16E1145EFF0EFB337F6020031
:10313800130606E089656DBFB7F7070003C70701E7
:103148002D71232C8110232A911023282111232E3D
:10315800111023263111A5472A843289939425001A
:10316800630FF702A686AA850146254597D0FF1F5B
:10317800E780A036A6864A86A285294597D0FF1FF4
:10318800E780A0358320C1110324811183244111D4
:10319800032901118329C110014515618280FD7938
:1031A800B3793501930600100A86CE852D4597D050
:1031B800FF1FE78080321315440149812686CA859E
:1031C8000A9597D0FF1FE7804070CE858566014637
:1031D800254597D0FF1FE78040300A86CE859306A5
:1031E8000010294597D0FF1FE780202F8320C111A9
:1031F8000324811183244111032901118329C1105A
:103208000145156182801D71494697250200938505
:103218006556173502001305A5A886CEA2CC97D00F
:10322800FF1FE780C07701E9172502001305C55580
:10323800EF10824F01A037F700E0795610CBFD560A
:1032480054CBB7E700E0056423A087109306F0028B
:1032580014C323A087180F10000017E7FF1F1307D8
:1032680027C423A0E18A4157A38AE7401306000434
:103278008145080897D0FF1FE780406C97F7FF1F2C
:10328800938787243EC8896793870780231AF100AC
:103298009D673ECCB707010A938707103ECE930778
:1032A80040202310F10299472301F10297070000FB
:1032B800938727D6BEC297070000938727E8BEC426
:1032C80097070000938767C93ED8B7F507009707A7
:1032D80000009387C7D5130754D181463EDC3000E0
:1032E80097070000938787D2E10519452312E10269
:1032F8003EDE97D0FF1FE780401E0357C100A2465D
:10330800C2472316E10236D491E301A08357410155
:10331800E3ED87FE8307410263D70704930780081C
:10332800F3B7078093F787083EC40F100000B7175C
:103338000040130770052380E704130780FA2380F1
:10334800E7040F100000B847B70610001367071806
:10335800B8C79853558F98D323800704A247F3A77B
:1033680007800F1000000808EF10D03BAA8509E578
:10337800F640664425618280172502001305054240
:10338800EF10022601A0411117050000130545D1D1
:1033980006C622C4EF1050351384418A2300A400C6
:1033A8001928034504002244B240130600328965F7
:1033B80041016F10804C797106D613078008F337E6
:1033C800078093F787083EC20F100000B717004028
:1033D800930570052380B704130680FA2380C70479
:1033E8000F10000083C6F70293F6A60FA387D70233
:1033F800238007049246F3A606800F100000733757
:103408000780137787083AC40F1000002380B70499
:103418002380C7040F10000003C7F70213672700B3
:10342800A387E70223800704A247F3A707800F10AA
:1034380000000545EFE05FCBC13E8147014781466B
:10344800054685451305407EEFE0FFCE68005146EE
:10345800814597D0FF1FE780604EB787E8039387C1
:1034680007D03ECAB707C0A83EC8680097D7FF1F55
:10347800938767F73EC6EF10D05EB25045618280F1
:10348800011122CC2A84680006CE613C03578400CF
:103498008148B71700407D566309071A58441393AB
:1034A800180046931A97034817009D462DA86305F0
:1034B800071E03A7870A4D8F23A4E70A010001000E
:1034C80001000100010001000100010001000100EC
:1034D80003A7C70A4C404D8F23A6E70A0100010045
:1034E800FD166384C60408403357D8404C40058B0A
:1034F8005DDD630B071C03A7870C4D8F23A4E70C26
:1035080001000100010001000100010001000100AB
:103518000100010003A7C70C4C404D8F23A6E70C00
:1035280001000100FD16E390C6FC58449D461A9719
:10353800034807002DA86301071C03A7870A4D8FBE
:1035480023A4E70A010001000100010001000100B5
:10355800010001000100010003A7C70A4C404D8F7C
:1035680023A6E70A01000100FD166384C60408408B
:103578003357D8404C40058B5DDD6307071A03A716
:10358800870C4D8F23A4E70C010001000100010006
:1035980001000100010001000100010003A7C70CA0
:1035A8004C404D8F23A6E70C01000100FD16E39067
:1035B800C6FC58449D461A97034827002DA8630D5A
:1035C800071803A7870A4D8F23A4E70A0100010003
:1035D80001000100010001000100010001000100DB
:1035E80003A7C70A4C404D8F23A6E70A0100010034
:1035F800FD166384C60408403357D8404C40058BF9
:103608005DDD6303071803A7870C4D8F23A4E70C20
:10361800010001000100010001000100010001009A
:103628000100010003A7C70C4C404D8F23A6E70CEF
:1036380001000100FD16E390C6FC850803578400CD
:10364800C20893D80801E3EBE8E418405C4063152E
:103658000716371700408326C70AD58F2326F70A8F
:10366800231501008356A1009307703E1307703E8F
:1036780063EED70001008357A1008507C207C18305
:103688002315F1008357A100E376F7FE324555383C
:10369800F24062440561828003A7870A4D8F23A404
:1036A800E70A0100010003A7C70A4C404D8F23A673
:1036B800E70A01000100010001000100010001000A
:1036C80001000100010029BD03A7870C4D8F23A429
:1036D800E70C0100010003A7C70C4C404D8F23A63F
:1036E800E70C0100010001000100010001000100D8
:1036F800010001000100EDB303A7870A4D8F23A441
:10370800E70A0100010003A7C70A4C404D8F23A612
:10371800E70A0100010001000100010001000100A9
:1037280001000100010089B503A7870C4D8F23A470
:10373800E70C0100010003A7C70C4C404D8F23A6DE
:10374800E70C010001000100010001000100010077
:1037580001000100010009BD03A7870A4D8F23A4BA
:10376800E70A0100010003A7C70A4C404D8F23A6B2
:10377800E70A010001000100010001000100010049
:10378800010001000100ADB503A7870C4D8F23A4EC
:10379800E70C0100010003A7C70C4C404D8F23A67E
:1037A800E70C010001000100010001000100010017
:1037B8000100010001002DBD371700408326C70C0A
:1037C800D58F2326F70C69BD011106CE22CC26CA57
:1037D8004AC84EC652C449C2AA894145B2842E89F4
:1037E800EF00923E2A842DC9139A1400269A528516
:1037F800EF00923D48C431CD232034012322240117
:103808002314940091454A85638A0902EFF0AFE0DA
:10381800371700408327C70CB3E727012326F70C87
:10382800484452868145EFE0FF87F2402285624492
:10383800D2444249B249224A05618280EFF02FD131
:10384800371700408327C70AB3E727012326F70A5B
:10385800C1BF2285EF00D2370144C1BF15C18357CC
:10386800850063FFF5005C4513951500AA95AE9792
:103878002380C700A380D7002381E7000145828009
:103888007D55828011C1EDBE828005CD83578500AC
:10389800411122C42A8448451396170026C23E9631
:1038A800AE84814506C6EFE0EFFF91E4B2402244C2
:1038B80092444101828022852244B24092444101CF
:1038C800C1B682802A86B305B040172502001305C9
:1038D800E5EE6F00F2501388C18A83580800AE875E
:1038E80032876388A80017250200130525F06F00AA
:1038F800B2632E86172502001305C5EDC685231170
:10390800F8002312E8002313D8006F00724D11C18C
:103918008280011122CC26CA3284AE8411468145A8
:10392800680006CE97D0FF1FE78040012286A68553
:10393800680097D0FF1FE78040F98D47630DF400BA
:1039480017250200130505EBEF00125EF2406244F2
:10395800D244056182808346E1000346D100834555
:10396800C100172502001305E5E91384418BEF0018
:1039780032470347E1008346D1000346C1000840AF
:103988008145E93D0840FD3DF2406244D24405616D
:10399800828041119397050122C406C6C1872E84EF
:1039A80063C0070693F7150085EF93F78500B5E721
:1039B80093F7050181EB13F5450051E1B24022442C
:1039C80041018280014789460946814503D5C18A5C
:1039D800EF70514AB24013450401224441018280EC
:1039E80017E6FF1F1306C65F9385819B03C53181C8
:1039F800EF704160B24013451400224441018280B7
:103A080003C53181EF00F00519C1EF006079216528
:103A1800B240218D22444101828083C7318113073E
:103A2800401F814613064006994503D5C18AEF70A9
:103A3800C157B2401345840022444101828003D516
:103A4800C18AEF70B1400566130606C8914503C5E3
:103A58003181EF009062134544008DB73D89994745
:103A680063E4A72417270200130787E70A053A9596
:103A78001C41797122D4BA9706D626D24AD04ECEA6
:103A88002E84828703C725009547630DF70AB25035
:103A9800225492540259F2494561828083C5250017
:103AA80091476380F50899476381F5109547639FAF
:103AB800F50683471400B5E717250200130505E14D
:103AC8002254B25092540259F24945616F00D245CE
:103AD8002254B25092540259F24917250200130594
:103AE80025D445616F00524483C725001947638375
:103AF800E7080D4717250200130545D5E399E7F8B0
:103B0800C1B703C725008D47172502001305C5D87F
:103B1800E308F7FAB250225492540259F249456127
:103B28008280172502001305A5D859BF1725020062
:103B3800130545DA2254B25092540259F2494561AC
:103B48006F00122A1387C18A03560700C16793863C
:103B5800E7FF03D5A500630FD606EF70712F172571
:103B680002001305A5CFEF00323C1725020013050C
:103B7800E5D1B9B79387C18A83D6450003D7070033
:103B8800638AE60C17250200130545C6EF00D239F3
:103B98008345640017250200130585C9EF005224E8
:103BA80017250200130585CA21BF9387C18A83564A
:103BB800440003D707006384E60C172502001305A9
:103BC800E5C2EF007236834564001725020013052D
:103BD80025C68DB783D605010356E40083D5250194
:103BE800FD174206C205FD8EE98FCD8ED18F1CC30D
:103BF80054C393843181EF10907AAA8703C50400D7
:103C080009661389818013060690A1452310F900DF
:103C1800EF00B04603C50400856913860996C145BF
:103C2800EF00B04503C50400138609C89145EF00AD
:103C3800D044835609000356E4008355A400172591
:103C480002001305E5C2EF00B2191725020013059B
:103C5800E5C3BDB541677917914503C5318198C35F
:103C680023A8018AEF00D06B85471306F10085452C
:103C780013055030A307F100EF70616B11BF416766
:103C88007917914503C5318198C323A8018AEF00AC
:103C9800306985471306F100854513055030A307A1
:103CA800F100EF70C16805B78280011117050000A7
:103CB800130565CE06CE22CC26CAEF10E022AA87CD
:103CC800938431812380F4009947054413069100B9
:103CD8002315F10085459307400613055030231638
:103CE800F100A3048100EF70816417E6FF1F13063B
:103CF8006631D54513057030EF7061631386C18056
:103D08009D4513056030EF7081621306A100894557
:103D180013051031EF70A16170008945130520313A
:103D2800EF70E160930500050D45EF3040289305DD
:103D380000051145EF30A02785457945EF3020274C
:103D48007000914513057040A3038100230481008E
:103D5800A304810002C623050100EF60C115130604
:103D68007100854513050040EF60E114300085457A
:103D780013051040EF6021141306A10085451305B3
:103D88002040EF604113130691008545130550400C
:103D9800EF6061127D55EF50705C7D55EF70704398
:103DA800A9247D55112E17E6FF1F13062624D54595
:103DB8000145EF50504917E5FF1F1305E554292E1B
:103DC800930500050D45EF30801E9305000511454C
:103DD800EF30E01D03C50400C1671387C18AF917D6
:103DE80085451CC323220700EF0090096244F24076
:103DF800D24417250200130565B005616F00D21281
:103E0800CC4103C8150083C5050022083368B800F3
:103E1800F5759385D55D2E984208135808019305CA
:103E2800D00263E0051DB2880A08172602001306AF
:103E380066AE329883250800411106C6B295828580
:103E4800239006002945B240410182801D461D4548
:103E5800E36BE6FE2146198E63F3C7003E86938521
:103E6800818B46852390C600BA9597D0FF1FE780BF
:103E7800C0A50145C9BF2D461D45E366E6FC314690
:103E8800198E63F3C7003E8697250200938505BB0C
:103E980046852390C600BA9597D0FF1FE780E0A219
:103EA800014555B731461D45E36FE6F83546198E8D
:103EB80063F3C7003E8697250200938525B746859C
:103EC8002390C600BA9597D0FF1FE78000A0014550
:103ED8009DBF41461D45E368E6F64546198E63F3E6
:103EE800C7003E8697250200938505B34685239033
:103EF800C600BA9597D0FF1FE780209D0145A1B75E
:103F080041461D45E361E6F44546198E63F3C70053
:103F18003E86972502009385E5AE46852390C60028
:103F2800BA9597D0FF1FE780409A014529BF4146BF
:103F38001D45E36AE6F04546198E63F3C7003E86E1
:103F4800972502009385C5AA46852390C600BA9591
:103F580097D0FF1FE78060970145F5B541461D459D
:103F6800E363E6EE4546198E63F3C7003E86972560
:103F780002009385A5A646852390C600BA9597D0DA
:103F8800FF1FE780809401457DBD35461D45E36CE4
:103F9800E6EA3946198E63F3C7003E869725020084
:103FA8009385C5A246852390C600BA9597D0FF1F72
:103FB800E780A091014541BD19461D45E365E6E846
:103FC8003306E54063F3C7003E8693854181468505
:103FD8002390C600BA9597D0FF1FE780008F014550
:103FE8009DB5239006002945828097E6FF1F93869A
:103FF800E6024146CD4517E5FF1F1305E5026F7040
:1040080090152390060029458280011106CE22CC06
:1040180026CA4AC803C485001374040239E03289E9
:1040280003C605008947AE84630AF6000544F240DA
:1040380022856244D244424905618280CC4141666E
:10404800051683C7150083C50500A207CD8F6382B7
:10405800C7022944F24022856244D244424905619C
:1040680082802144F24022856244D244424905615B
:10407800828029E38D4736C663F4D700354445BFAF
:10408800C8440D46814597D0FF1FE780208BB24674
:10409800C844CA85368697D0FF1FE780008383A768
:1040A800418CD1D79C43C1D7B246CA8501453686D3
:1040B8008297B5BF2D44A5BF058919E101458280C6
:1040C80097E6FF1F938646094146914517E5FF1F6E
:1040D800130545096F70300809C523A2A18C014555
:1040E80082804545828041111305800406C622C49A
:1040F80097C0FF1FE78000FC371400408327840A1D
:104108008D451305002093E707202324F40AEFE0E8
:104118001FC4EFE07FEA91450965EFE05FC383279D
:10412800C40A09670546D98F2326F40A856501451F
:10413800EFF08FE923AAA18A0DC58545EFF0EFF4CA
:104148001305401F97C0FF1FE7808022EFF0AF8B59
:10415800EFF06FA3EF704152893E97C0FF1FE780D1
:10416800602B01A023AC05FE1C4191E70100010072
:104178000CC18280BA8703A787FF6DFF23ACB7FE07
:104188008280184183A785FF6319B7001CC1FD57BA
:1041980023AC05FE238FF5FE8280232CF6FEC5BFD7
:1041A800411122C437E400E026C20440370720004A
:1041B80006C6F98C2320E4180F10000009E9232013
:1041C80094101545B240224492444101828003472D
:1041D800E5FF9307F00F6306F700232094101145BD
:1041E800D5B797D0FF1FE7802031014523209410D1
:1041F800D1BF411126C2B7E400E04AC003A90400B8
:10420800B707200006C622C43379F90023A0F418A2
:104218000F10000009E923A02411B240224492445F
:104228000249410182809565938505D0C98D2A840C
:104238002105C2054205C181418197D0FF1FE78052
:10424800801C01CDFD572320050023128500230380
:10425800F50023A024112105C9B723A02411014585
:104268006DBF0111B7E700E04AC803A907004EC6B1
:104278003707200006CE22CC26CAAA893379E9005E
:1042880023A0E7180F10000097070020938787A83E
:1042980080438144014619E499E8A1654E85EF0001
:1042A800300805A08347E4FF6399370385CCA685CA
:1042B80017050020130505A6E93565D0A1654E85CB
:1042C800C126F2406244B7E700E023A02711268503
:1042D8004249D244B2490561828091E02286032492
:1042E80084FF55BFA284E5BF41114AC037E900E009
:1042F80022C4032409003707200006C626C2798C89
:104308002320E9180F10000089E52320891015459E
:1043180015A0AA849707002083C717A02E8563F5E8
:10432800F400894763EE9700A53DB7E700E023A0B6
:1043380087100D45B24022449244024941018280CF
:1043480083A785FF99E703C7E5FF9307F00F630885
:10435800F700B935B7E700E023A087104DBF238FDA
:1043680095FE170500201305E59AED3BA165268506
:10437800012E01452320891075BF9707002023AB24
:1043880007988280970700209387479E9C4399E36C
:104398003E85828003D727006316B70003C707004E
:1043A800E308A7FEDC47E5B7A5C1011106CE22CC7C
:1043B80026CA8147C14633D7F540058B29C3120564
:1043C8003E9531473305E502170700201307479E3E
:1043D800044305443314F4002EC642044180AA94D1
:1043E8009C40C8408297B24523A0040023A2040041
:1043F800A18DF2406244D2442E85056182808507F2
:10440800E39BD7FA0144EDB72E858280C9C1797143
:1044180022D406D626D24AD04ECE01444147B3D73D
:104428008540858BA5C31205314722953305E502E2
:10443800970700209387C79703A907008544B3947B
:104448008400C204C180BE892A990327090011C7C4
:10445800032549002EC60297B24531473304E402CA
:1044680083A709003E941C4489E7232009002322DE
:104478000900B2502254A58D02599254F2492E8552
:10448800456182800504E31CE4F88144DDB72E858C
:1044980082804111B7E700E022C48043370720003B
:1044A80006C626C2798C23A0E7180F1000009707CC
:1044B80000209387E78B9C539384818299C78297C6
:1044C8009C403E9523A4A18239A09707002093879A
:1044D80067899C43EDF78840B74703009387D73F28
:1044E8003305F502B7A72600938737ECB24092440C
:1044F8003E9523A4A182B7E700E023A087102244B9
:10450800410182800111B7E700E022CC80434AC80C
:104518003707200006CE26CA2A892E86798C23A042
:10452800E7180F100000131506019305F0044181E8
:1045380032C697D0FF1FE78000EDAA8419C532461E
:10454800CA8597C0FF1FE7804038B7E700E023A07F
:104558008710F240624426854249D2440561828030
:104568007971B7E700E022D480433708200006D6E7
:1045780026D24AD04ECE52CC56CA5AC85EC662C45B
:104588003374040123A007190F10000005E123A0CC
:1045980087100945B250225492540259F249624A8E
:1045A800D24A424BB24B224C4561828097F7FF1F9B
:1045B8009387477B9C43BA8A368AB28B2E8BAA890B
:1045C800829797F7FF1F9387A77E98433E89814478
:1045D800B146C147338CD40233068701104241EA01
:1045E800C165938505F0414597D0FF1FE780A0E19D
:1045F80005E197F7FF1F9387A7779C5B81C78145E4
:1046080011458297B7E700E023A087102D4559B7D9
:1046180097F7FF1F93878775984331E797F7FF1F31
:1046280023A6A7742300050083270900054733172D
:10463800970023260500232475012311E500232272
:104648005501E29723A0370123A2670123A457014C
:1046580063040A0023009A00B7E700E023A087104C
:1046680001450DBF3E875C47F5FF48C765BF850418
:10467800E392F4F6B7E700E023A08710214519BFBD
:10468800B7E700E09843B706200023A0D718758F36
:104698000F10000097F6FF1F83C616686373D502D4
:1046A80017F6FF1F1306466C931615000842369539
:1046B80083560500D58D2310B50023A0E7100145CA
:1046C800828023A0E7100D458280B7E700E0984379
:1046D800B706200023A0D718758F0F10000097F693
:1046E800FF1F83C676636375D50217F6FF1F13068F
:1046F800A66793161500084293C5F5FF36958356AD
:104708000500F58D2310B50023A0E7100145828030
:1047180023A0E7100D458280011137E700E026CA83
:104728000443B706200006CE22CC4AC84EC652C45F
:10473800F58C2320D7180F100000130705FF1377F7
:10474800F70FFD4763E5E70AB146B306D50297F7C9
:10475800FF1F9387E765984336971C43C9CB135AC5
:10476800450005443D893315A40013140501418013
:104778002E895285A2853931AA8929CDA2855285EB
:10478800A93797F7FF1F9387E75D9C43829797F7B1
:10479800FF1F83D72763338727032A84814613069D
:1047A8000064B3B7270313050732B335E500BE9598
:1047B800EFF09106B307850097F6FF1F9386066012
:1047C8003E87D44263E4A70063E4D7003387D74029
:1047D80023A4E900B7E700E023A097100145F240C1
:1047E8006244D2444249B249224A05618280B7E70D
:1047F80000E023A097100945DDB70111B7E700E0F5
:1048080026CA84433707200006CE22CC4AC84EC6A3
:10481800F98C23A0E7180F100000BD4763E9A7042F
:1048280031473307E50297F7FF1F938767589C4383
:10483800BA979C438DCF05443314A40042044180A9
:104848002E890145A2853D3EAA8911C5A28501454B
:10485800AD3D23A42901B7E700E023A09710014547
:10486800F2406244D2444249B24905618280B7E7C6
:1048780000E023A097100945E5B779714AD037E9D8
:1048880000E026D283240900B707200006D622D4E8
:104898004ECE52CC56CA5AC85EC6FD8C2320F91893
:1048A8000F10000097F7FF1F83C71747637AF500BB
:1048B80097F7FF1F9387074B83AB070063970B009E
:1048C800B7E700E023A09710A9A017FBFF1F130B61
:1048D800EB4E832A4B00B74736FE938707C82E8ACC
:1048E80097F5FF1F83D5054EBE9AB387C5022A8464
:1048F800B2898146B3B5C50213850732B337F500CF
:1049080013060064BE95EFF0217163F0AA0223201C
:1049180099100145B250225492540259F249624A00
:10492800D24A424BB24B45618280829B97F5FF1F6A
:1049380083D54549B38735032A8913060064814620
:10494800B3B5350313850732B337F500BE95EFF0DD
:10495800A16CB30725013E8903274B0063E4A70038
:1049680063E4E7003389E740D2852285213C09C901
:1049780023242501B7E700E023A09710054559BF78
:10498800936504F0C205C181414597D0FF1FE780B8
:1049980080A719E997F7FF1F9387873D9C5B8DD305
:1049A800A2851145829729BF97F7FF1F9387073C78
:1049B8009C4385E797F7FF1F23AAA73A8547232635
:1049C8000500232425012311450123008500A300A8
:1049D800F5002322050079BFBA87D84775FFC8C7F5
:1049E800F1BF7971B7E700E026D28443370720008A
:1049F80006D622D44AD04ECE52CC56CA5AC85EC623
:104A080062C466C26AC0F98C23A0E7180F100000C0
:104A18003DC14144B689B28A2E8A2A89B14C17FB16
:104A2800FF1F130BEB38054D130C0003B30B940356
:104A380003270B005E971C43A5E39375F400B31599
:104A4800BD0013554440C2055686C1811375F50F44
:104A58002D3539C183270B00DE9723A0270123A218
:104A680047016384090023808900B7E700E023A099
:104A78009710014521A023A097100945B250225450
:104A880092540259F249624AD24A424BB24B224CE2
:104A9800924C024D456182800504E31984F9B7E719
:104AA80000E023A097102145D1BF0111B7E700E02E
:104AB80026CA844322CC4AC84EC63707200006CEF1
:104AC8002A84AE893289F98C23A0E7180F100000D8
:104AD8006D332285CE85EFF0FF8A2A8405C597F5C8
:104AE800FF1F83D5252EB38725031306006481464F
:104AF800B3B5250313850732B337F500BE95EFF03C
:104B0800A15148C013351400F2406244B7E700E0F1
:104B180023A097104249D244B2490E05056182800C
:104B28000111B7E700E04AC803A9070022CC4EC626
:104B38003707200006CE26CAAA892E843379E900D1
:104B480023A0E7180F100000EFF0DF83AA8419C133
:104B580023110500A2854E858D3E97F7FF1F83C759
:104B6800A71B639B370197F7FF1F83D7671F5D8CD0
:104B780097F7FF1F2396871EB7E700E023A02711AA
:104B8800014591E01945F2406244D2444249B24994
:104B98000561828001114AC837E900E022CC03246C
:104BA8000900B707200006CE26CA4EC67D8C2320F2
:104BB800F9180F1000009307F00263E8A704B14743
:104BC800B304F50297F9FF1F9389891E83A709008B
:104BD800A6979C439DCB9377F5008545B395F50043
:104BE800C205C18111812D3F83A709000145A69700
:104BF80023A0070023A2070023208910F240624463
:104C0800D2444249B24905618280B7E700E023A057
:104C180087100945E5B74111B7E700E026C284438C
:104C280006C622C437072000F98C23A0E7180F1006
:104C38000000EFF02FF519E90145B2402244B7E72B
:104C480000E023A0971092444101828097F7FF1F4C
:104C5800938747119C430045829797F7FF1F9387D7
:104C6800E7156368A402D843B74636FE938606C89C
:104C78003305A4403697E371E5FC13070064B335A8
:104C8800E50203D6870081463305E502EFF0C13817
:104C98006DB7D8433A94C1BF411122C426C217F454
:104CA800FF1F1304A41197F4FF1F9384E40694488C
:104CB800584097F7FF1F9387E70A06C69C436393FC
:104CC800E60882975440B74736FE938707C8B697D9
:104CD8003387A7003A856364F7006364D700330518
:104CE800D74097F4FF1F93846426DC5081CF97F751
:104CF800FF1F9387672D94433707CDFF7D179C4689
:104D0800F98F9CC611E1484097F7FF1F9387470624
:104D1800DC53829719E5DC508DC3EF00A146EFF014
:104D2800B016DC5099CB97F7FF1F9387E729984374
:104D3800B70633001C47D58F1CC7B24022449244A3
:104D480041018280829794485840B387A6003E85E7
:104D580063E4D700E3E7E7F83385E74059B7411143
:104D680006C697F7FF1F23A9A7040295B24097F735
:104D7800FF1F23AFA7FA014541018280994763E9E4
:104D8800B7008A0597F7FF1F9387C7FBBE9588C1B1
:104D9800828097F7FF1F23AFA70011C5854717F734
:104DA800FF1F2300F7FC828041117146814517F5EA
:104DB800FF1F130525F906C697F7FF1F23A807FA53
:104DC80097F7FF1F23AA07FE97F7FF1F23AC07F8E3
:104DD80097F7FF1F238707F897F7FF1F23AC07FCF8
:104DE80097C0FF1FE78080B513068002814517F53D
:104DF800FF1F130565F297C0FF1FE78020B4EF601F
:104E0800711197F7FF1F9387A7F603C5C70383C7D9
:104E1800D70385453E958D473305F502390513754A
:104E2800F50F97F7FF1F238AA7EE99473305F50279
:104E38001305052497C0FF1FE780E05C17F7FF1FE5
:104E48002328A7F659CD994717F6FF1F0346E6EC26
:104E58003306F60281451306062497C0FF1FE78034
:104E6800E0AD97F7FF1F9387A7F49C439387072428
:104E780017F7FF1F2326F7EC17F7FF1F0347E7E98C
:104E88000A07BA9717F7FF1F2320F7EEEFF0EFCEC8
:104E9800E12997F7FF1F9387A7EA944397F7FF1F26
:104EA80083C797E713972700369717F6FFFF130670
:104EB800265610C3138717001377F70F0A0736977C
:104EC80017F6FFFF1306864E10C3138737008907AE
:104ED80093F7F70F8A0797F5FF1FA38FE5E2B697B9
:104EE80090C3B2404101828097F7FF1F83C7D7E282
:104EF80017F7FF1F034767E263F3E70217F7FF1F80
:104F0800130707E418439386170017F6FF1FA30536
:104F1800D6E093962700369708C33E85828093078C
:104F2800F00FE5BF1C416384071641777D8FB706F4
:104F380000208947631ED71403574500630A0714E6
:104F4800411122C419462A849305F00F610506C64B
:104F580097C0FF1FE78000AD05478D476304E51242
:104F68001C4481CB58589947630E0710185C630B93
:104F7800071013060004814517F5FF1F130545DFC9
:104F880097C0FF1FE780809B13060004A28517F5D2
:104F9800FF1F1305E5DD97C0FF1FE780009397F714
:104FA800FF1F83D7A7DD17F7FF1F130767DC99E7F4
:104FB8009307001097F6FF1F2392F6DC97F7FF1F61
:104FC80083C7E7DB91E7854797F6FF1F2389F6DA62
:104FD80097F7FF1F83D7C7DA91E7ED4797F6FF1FCB
:104FE8002390F6DA97F7FF1F83C777D991E795479C
:104FF80097F6FF1FA385F6D897F7FF1F83C767D8D3
:1050080091E7854797F6FF1F238DF6D697F7FF1F81
:1050180083C737D799E78347F70097F6FF1FA3821F
:10502800F6D697F7FF1F83C7F7D581CF93F63700DA
:10503800898317F6FF1F230BD6D697F6FF1FA38782
:10504800F6D697F7FF1F83C7E7D391E7D54797F6BB
:10505800FF1F2389F6D28347640199E79307C003AA
:1050680097F6FF1F2381F6D21C5791C7829797F7AF
:10507800FF1F2397A7CAFD5717F7FF1FA30CF7FABF
:1050880025338147B24022443E85410182808947C9
:105098003E85828001114EC697F9FF1F938909D278
:1050A80083A7090006CE22CC26CA4AC852C48297D2
:1050B80013090064B335250303DA89008146528653
:1050C80033052503EFE0517597F7FF1F9387C7C492
:1050D800804FAA8401456306940233858440636E39
:1050E800940003A5490052868146B335A9023305C9
:1050F800A902EFE07172018D269597F7FF1F23A98A
:1051080097C2F2406244D2444249B249224A0561F8
:105118008280011122CC0A852E844146970502001F
:105128009385856106CEEFC09FF6180806043A9469
:10513800035504FF97F7FF1F83D7E7C8F24062447F
:10514800AA9737450F00130505243355F502056165
:10515800828097F7FF1F83D707C751471D45637C98
:10516800F702794719456378F702130720031545B5
:105178006373F7021307B0041145637EF700130742
:1051880040060D456379F700130760090945637404
:10519800F70013B5B70F8280011122CC06CE2A84FE
:1051A8002EC6EFF00FAFB245F240818D33A5A502B0
:1051B800229562441375F50F05618280011122CC96
:1051C80006CE2A842EC6EFF0CFACB245F240818DD0
:1051D80033A5A5022295624442054181056182807A
:1051E800011122CC06CE2A842EC6EFF08FAAB24532
:1051F800F240818D33B5A502229562440561828013
:1052080097F7FF1F9387C7B6985739CB411122C428
:1052180026C206C6BE84029717F7FF1F035747B07A
:105228002A8415CBBA876373A700AA87C207C183EC
:10523800BA866373E400A286C206C182958F51477D
:10524800635BF700DC5491C38297EFF0705C97F7CB
:10525800FF1F239787ACB2402244924441018280C9
:10526800828097F7FF1F23A507B697F7FF1F93873D
:1052780027B0DC57011106CEAA8581C72AC68297B6
:10528800B245CDC19C410545D9CBDC41C9CB83D7BB
:105298008500D1C783D7A500D9C3514617F5FF1F8D
:1052A8001305C5B197B0FF1FE780206297F7FF1F6E
:1052B800238C07B097F7FF1F938747B09C4317F7D6
:1052C800FF1F2321F7AA97F7FF1F83C7D7AB8DE7E7
:1052D8009307805717F5FF1F0355C5AE3305F50231
:1052E80037460F001306062481468145EFE0D15268
:1052F80097F7FF1FA389A7A817F7FF1F0347B7A8AA
:10530800A54763E7E700A94717F7FF1FA30DF7A60F
:1053180017050000130545D8EFF07FA40145F240BA
:105328000561828097F7FF1F23A607A097C7FF1F75
:105338009387E7AD17F7FF1F2322F7A87D5797F745
:10534800FF1F23AFE7A6B7873200938727A197F6F9
:10535800FF1F23A9F6A697F7FF1F238707A6B7C73E
:10536800004023A4E726B9B7011122CC17F4FF1F88
:10537800130404A0084406CE26CA4AC801E9054514
:10538800F2406244D2444249056182805C58E5DBC0
:10539800185C75D77000854582971844B247E300BA
:1053A800F7FE9305E00417F5FF1F0355259D97C0E9
:1053B800FF1FE780400517F7FF1F232FA79661D12E
:1053C80017F6FF1F0356869B9305F00F97B0FF1F34
:1053D800E780C056814417F9FF1F1309E99397F72F
:1053E800FF1F83C7C7990326090263C1F4023285E8
:1053F80097C0FF1FE7804010014597F7FF1F23ADB7
:10540800079297F7FF1F23AB07929DBF97F5FF1FE2
:1054180083D5C596B38795020844185C89818504AD
:105428003E9508C2029765BF011156C297FAFF1F41
:10543800938A0A9483A78A0022CC4AC84EC606CE0D
:1054480026CA52C45AC0AA892E8432896386072282
:1054580003A74A03630907141307F01F6367A71418
:1054680097F4FF1F9384448B03AA040263170A0A64
:105478009565938515E017F5FF1F0355259097C08F
:10548800FF1FE78040F897F7FF1F23A7A78A2A8600
:10549800630B051083A74A0303A58A0097F5FF1F2E
:1054A80083D5C58D8981829783A78A0003AA0402C0
:1054B80017F7FF1F2324F7888947639CF908C1471A
:1054C8006313F40E97F5FF1F83D5458B938505FC71
:1054D8009147B3C5F5028A05D29503C725009307FE
:1054E800A005631EF70A83D70500639A370B4A8520
:1054F8002286910597B0FF1FE780203D9C5052857A
:10550800639347150145F2406244D2444249B24987
:10551800224A924A024B05618280D850E38EE7F80E
:105528009565938525E017F5FF1F0355258597C0D9
:10553800FF1FE78040ED2A8A3DC52A8683A74A03D4
:1055480003A58A0097F5FF1F83D545838981829734
:10555800A5B78D47639DF900C1476316F40497F515
:10556800FF1F83D5A581938545FDF199B5B791476F
:10557800639AF9006319340397F5FF1F83D50580F3
:10558800A115E5B793070010639FF900A14763ECE5
:10559800870097E5FF1F83D5657EC115F9B79C5035
:1055A80052856396470D2945B9BF1D6A568B6371AD
:1055B800450B130A05E01947334AEA0217E7FF1FAC
:1055C8000357C77B97EAFF1F938A0A75330AEA02D3
:1055D8003E9A83A74A026395470183A40A029DE481
:1055E8009305E00417E5FF1F0355457997C0FF1F92
:1055F800E78060E1AA8445D983274B0397E5FF1F1D
:1056080083D5C5772A868981528582979145130764
:10561800A005898193972500A69783C627006393E1
:10562800E60483D60700639C360385058A0522862F
:10563800A6954A8597B0FF1FE780202983A70A020D
:10564800E38297EC268597C0FF1FE780E0EA5DBDFF
:1056580021677917E369A7F4330A454185B783C5FC
:10566800370045BF83A70A02E38F97F2268597C0C4
:10567800FF1FE78060E805BF97E7FF1F9387C769AB
:105688008C5395D191479306A005898313972700DA
:105698002E9703462700E318D6F003560700631C2D
:1056A800360185078A072286BE954A8597B0FF1F6F
:1056B800E780A02181BD83473700C1BF97E7FF1F5F
:1056C8009387076B984739C79C5FA9C7054763133A
:1056D800E504411122C417E4FF1F1304E4631050CA
:1056E80006C60DC6485097E5FF1F83D525698981F1
:1056F8008297085097C0FF1FE78000E097E7FF1FD9
:1057080023AC076297E7FF1F23AA0762B24022442F
:10571800410182808280011117E7FF1F1307476547
:105728004EC68329870022CC26CA4AC806CE52C450
:1057380056C2AA842E843289638B09201C5FBA8AD8
:1057480099EB2945F2406244D2444249B249224A7F
:10575800924A056182805C5BEDD79307F01F63EA8C
:10576800A70E97E9FF1F9389295B83A70902B1CB8D
:1057780003A58A0083A749026395A706894763930F
:10578800F408C147E31FF4FA17E5FF1F0355055F47
:105798009147130505FC3345F5029317250003A52A
:1057A80009022286CA853E959307A0052301F500C4
:1057B80023109500110597B0FF1FE78000110145E0
:1057C80051B79305E00417E5FF1F0355255B97C004
:1057D800FF1FE78040C397E7FF1F23AFA75449F98E
:1057E8008DB783A74A0303A6090297E5FF1F83D550
:1057F800E5588981829783A78A0017E7FF1F232F1F
:10580800F752ADBF8D47639EF400C147E31BF4F226
:1058180017E5FF1F03558556130545FD9377C5FF0B
:10582800BDBF9147639AF400E31D94F017E5FF1F8D
:105838000355C5542115DDB793070010E393F4F021
:10584800A147E3E087F017E5FF1F035525534115EE
:10585800F1B79D676379F506930705E01947B3C764
:10586800E70217E7FF1F0357675117EAFF1F130ADD
:10587800AA4AB387E702BE9983270A02A1CF8327E2
:105888004A026399370703250A0291461308A005BF
:105898009305F00F93D72600139727002A970346FE
:1058A8002700631F060783580700034637006395E0
:1058B8009806B306D64063CF860485078A072286F2
:1058C800CA853E95CDBD21677917E36CA7E6B30776
:1058D800F54041BF9305E00417E5FF1F0355054A4E
:1058E80097C0FF1FE78020B297E7FF1F23A6A744B2
:1058F80059F581BD83A74A0303260A0297E5FF1FCE
:1059080083D5C54789814E85829797E7FF1F23A7CF
:10591800374395BF2310B70093160601C1829DBF78
:10592800B385860017E6FF1F035646459105130603
:1059380006FCE368B6E013063400719A1106B296C5
:105948002301070123109700A301D700BDB797E7EC
:10595800FF1F9387673C9453BE89A9C203A5090218
:1059680091461308A0059305F00F93D726001397C7
:1059780027002A970346270063180605835807005F
:105988000346370063989800B306D640E3D786F2FB
:105998002310B70093160601C182C1BF8357C70001
:1059A80017E5FF1F0345A53D9305E0043305F50200
:1059B8004205418197C0FF1FE780E0A497E7FF1FDA
:1059C80023ACA73641FDB5BB17E6FF1F0356063BC0
:1059D80097E5FF1F83C5A53AB385C50233868600C0
:1059E8001106E3E0C5D681BF0145828083C7050063
:1059F8002300F50083D72500A300F50083D72500F1
:105A0800A1832301F50083C74500A301F5001145D3
:105A1800828023A6018C23A4018C828029C1411194
:105A280026C206C622C4AA8401458DC52E842285B5
:105A38004146970502009385650197B0FF1FE780EF
:105A4800C0E883C7040005452306F40083C7140093
:105A5800A306F400B24022449244410182800145E9
:105A68008280011122CC26CA06CE0947AA84328434
:105A78006381E50441468147639BC500638FE60067
:105A88006397B6000DA841478147638EE600F24050
:105A98006244D2443E85056182808A852285BD3F65
:105AA80041468A8519A88A85953F41468A85228577
:105AB80031A0E39AB6FC2E86A285268597B0FF1FF3
:105AC800E780E0EDAA87E1B723A6A18C82800111C7
